:100000000C942A000C9447000C9447000C94470071
:100010000C9447000C9447000C9447000C94470044
:100020000C9447000C9447000C9447000C94470034
:100030000C9447000C9447000C9447000C94470024
:100040000C9447000C9447000C9447000C94470014
:100050000C94470011241FBECFE5D8E0DEBFCDBF12
:1000600010E0A0E6B0E0ECE1FBE002C005900D92EC
:10007000A039B107D9F720E0A0E9B0E001C01D9296
:10008000AC3AB207E1F70E948D010C948C050C94F8
:10009000000011B880E280B9089594EA96BF06B6D0
:1000A00007FEFDCF91B1987F903171F483B984E858
:1000B00086BF06B607FEFDCF81B1887F803431F060
:1000C000803231F083E0089580E0089581E0089562
:1000D00082E0089584E986BF06B604FCFDCF08954A
:1000E0001F93CF93DF93182FC4EAD4E8C6BF06B698
:1000F00007FEFDCF81B1887F8830C1F713B9D6BF25
:1001000006B607FEFDCF81B1887F883119F00E94C5
:100110006A00ECCFDF91CF911F91089583B984E8F5
:1001200086BF06B607FEFDCF81B1887F883221F0F9
:10013000803321F082E0089580E0089581E0089501
:1001400084EC86BF06B607FEFDCF83B1089584E830
:1001500086BF06B607FEFDCF83B1089595989698A1
:10016000E9EFF0E03197F1F700C00000979AE9EF6E
:10017000F0E03197F1F700C000009BB39F709BBB8C
:100180009BB3282F207F922B9BBBE9EFF0E03197A8
:10019000F1F700C000009798E9EFF0E03197F1F730
:1001A00000C00000979AE9EFF0E03197F1F700C046
:1001B00000009BB39F709BBB2BB3F0E18F9FC001EE
:1001C0001124822B8BBB89EF90E00197F1F700C0DF
:1001D00000009798E9EFF0E03197F1F700C00000D8
:1001E000089581B3806E81BB8AB3806F8ABB82E041
:1001F0000E94AE0088E20E94AE008CE00E94AE0039
:1002000081E00E94AE000895959A9698E9EFF0E09B
:100210003197F1F700C00000979AE9EFF0E03197CD
:10022000F1F700C000009BB39F709BBB9BB3282FCE
:10023000207F922B9BBBE9EFF0E03197F1F700C0F4
:1002400000009798E9EFF0E03197F1F700C0000067
:10025000979A9BB39F709BBB2BB3F0E18F9FC0011C
:100260001124822B8BBB89EF90E00197F1F700C03E
:100270000000E9EFF0E03197F1F700C00000979837
:1002800089EF90E00197F1F700C00000089581E048
:100290000E94AE000895CF93DF93EC0188818823FC
:1002A00031F021960E94040189918111FBCFDF91E9
:1002B000CF910895813031F060F0823029F08330A1
:1002C00029F006C0605C05C06C5E03C06C5A01C0BA
:1002D00060E0862F80680E94AE000895CF93DF9380
:1002E000CDB7DEB761970FB6F894DEBF0FBECDBFB6
:1002F000DC01CB014AE0BE016F5F7F4F0E945705D2
:10030000CE0101960E944B0161960FB6F894DEBFB4
:100310000FBECDBFDF91CF9108950E94F1000E94E2
:10032000490047E061E080E00E94250280E990E01A
:100330000E946C020E94470180E690E00E944B01FF
:10034000C0E9D0E0688179818A819B810E942D0477
:1003500080E090E00E946E0184E690E00E944B01F4
:100360006C817D818E819F810E942D0480E090E0D0
:100370000E946E0160E081E00E945A018AE690E0EE
:100380000E944B01688579858A859B850E942D0492
:1003900080E090E00E946E0160E082E00E945A01DD
:1003A0008EE690E00E944B016C857D858E859F8551
:1003B0000E942D0480E090E00E946E0182E790E0B0
:1003C0000E944B01688979898A899B890E942D0442
:1003D00080E090E00E946E0160E083E00E945A019C
:1003E00088E790E00E944B016C897D898E899F8906
:1003F0000E942D0480E090E00E946E018CE790E066
:100400000E944B01688D798D8A8D9B8D0E942D04F1
:1004100080E090E00E946E012FE986E891E0215093
:1004200080409040E1F700C000000E94470184E84E
:1004300090E00E944B012FE986E891E02150804036
:100440009040E1F700C0000071CF1F93CF93DF937E
:10045000C82FD62F142F8BE792E90197F1F700C030
:10046000000080ED0E94700089E10E948E00812FC3
:100470000E948E000E946A0080ED0E9470008BE650
:100480000E948E008D2F0E948E000E946A0080EDD7
:100490000E9470008AE10E948E008C2F0E948E00C4
:1004A0000E946A0080ED0E9470008BE10E948E0025
:1004B00088E10E948E000E946A0080ED0E94700018
:1004C00088E30E948E0081E00E948E000E946A00F4
:1004D000DF91CF911F9108954F925F926F927F921B
:1004E0008F929F92AF92BF92CF92DF92EF92FF9244
:1004F0000F931F93CF93DF93EC0180ED0E94700068
:100500008BE30E948E0081ED0E944D000E94A000AE
:10051000582E0E94A000482E0E94A000682E0E9423
:10052000A000782E0E94A000882E0E94A000982E85
:100530000E94A000F82E0E94A000182F0E94A00088
:10054000A82E0E94A000B82E0E94A000C82E0E94D3
:10055000A000E82E0E94A000D82E0E94A700082F1D
:100560000E946A00642D70E07529072E000C880B2C
:10057000990B0E945E0420E030E040E858E30E94BE
:10058000EA04688379838A839B83672D70E07629E8
:10059000072E000C880B990B0E945E0420E030E0CF
:1005A00040E858E30E94EA046C837D838E839F8336
:1005B000692D70E07829072E000C880B990B0E949A
:1005C0005E0420E030E040E858E30E94EA046887D7
:1005D00079878A879B876B2D70E07A29072E000C1C
:1005E000880B990B0E945E0423E333E343E851E454
:1005F0000E94BB036C877D878E879F876E2D70E07E
:100600007C29072E000C880B990B0E945E0423E3C3
:1006100033E343E851E40E94BB03688B798B8A8BF8
:100620009B8B602F70E07D29072E000C880B990BA7
:100630000E945E0423E333E343E851E40E94BB03DA
:100640006C8B7D8B8E8B9F8B612F70E07F29072EAB
:10065000000C880B990B0E945E0420E030E04AEA0F
:1006600053E40E94BB0328EB3EE142E152E40E94C6
:100670004F03688F798F8A8F9B8FDF91CF911F9166
:100680000F91FF90EF90DF90CF90BF90AF909F9031
:100690008F907F906F905F904F9008955058BB2738
:1006A000AA270E9466030C94B0040E94A20438F0AA
:1006B0000E94A90420F039F49F3F19F426F40C9409
:1006C0009F040EF4E095E7FB0C949904E92F0E9437
:1006D000C10458F3BA17620773078407950720F01F
:1006E00079F4A6F50C94E3040EF4E0950B2EBA2FE2
:1006F000A02D0B01B90190010C01CA01A001112428
:10070000FF27591B99F0593F50F4503E68F11A16D3
:10071000F040A22F232F342F4427585FF3CF469564
:1007200037952795A795F0405395C9F77EF41F1686
:10073000BA0B620B730B840BBAF09150A1F0FF0F50
:10074000BB1F661F771F881FC2F70EC0BA0F621F3C
:10075000731F841F48F4879577956795B795F7952C
:100760009E3F08F0B0CF9395880F08F09927EE0FC1
:100770009795879508950E94CF030C94B0040E942A
:10078000A90458F00E94A20440F029F45F3F29F028
:100790000C94990451110C94E4040C949F040E944D
:1007A000C10468F39923B1F3552391F3951B550BBD
:1007B000BB27AA2762177307840738F09F5F5F4F34
:1007C000220F331F441FAA1FA9F335D00E2E3AF073
:1007D000E0E832D091505040E695001CCAF72BD08B
:1007E000FE2F29D0660F771F881FBB1F26173707DC
:1007F0004807AB07B0E809F0BB0B802DBF01FF270E
:1008000093585F4F3AF09E3F510578F00C9499044D
:100810000C94E4045F3FE4F3983ED4F38695779517
:100820006795B795F7959F5FC9F7880F911D9695C6
:10083000879597F90895E1E0660F771F881FBB1F22
:10084000621773078407BA0720F0621B730B840BCF
:10085000BA0BEE1F88F7E09508950E94C90488F04E
:100860009F5798F0B92F9927B751B0F0E1F0660F74
:10087000771F881F991F1AF0BA95C9F714C0B130B5
:1008800091F00E94E304B1E008950C94E304672F13
:10089000782F8827B85F39F0B93FCCF386957795E4
:1008A0006795B395D9F73EF49095809570956195CD
:1008B0007F4F8F4F9F4F0895E89409C097FB3EF4F8
:1008C00090958095709561957F4F8F4F9F4F99239D
:1008D000A9F0F92F96E9BB279395F695879577951B
:1008E0006795B795F111F8CFFAF4BB0F11F460FFDB
:1008F0001BC06F5F7F4F8F4F9F4F16C0882311F033
:1009000096E911C0772321F09EE8872F762F05C046
:10091000662371F096E8862F70E060E02AF09A95E1
:10092000660F771F881FDAF7880F9695879597F9D6
:10093000089597F99F6780E870E060E008959FEF61
:1009400080EC089500240A94161617061806090666
:10095000089500240A941216130614060506089535
:10096000092E0394000C11F4882352F0BB0F40F4BD
:10097000BF2B11F460FF04C06F5F7F4F8F4F9F4FFD
:10098000089557FD9058440F551F59F05F3F71F07F
:100990004795880F97FB991F61F09F3F79F08795E6
:1009A0000895121613061406551FF2CF4695F1DF6F
:1009B00008C0161617061806991FF1CF86957105FF
:1009C000610508940895E894BB2766277727CB0133
:1009D00097F908950E94FD040C94B0040E94A204AB
:1009E00038F00E94A90420F0952311F00C9499048A
:1009F0000C949F0411240C94E4040E94C10470F32D
:100A0000959FC1F3950F50E0551F629FF001729FB3
:100A1000BB27F00DB11D639FAA27F00DB11DAA1FC2
:100A2000649F6627B00DA11D661F829F2227B00D0F
:100A3000A11D621F739FB00DA11D621F839FA00D9A
:100A4000611D221F749F3327A00D611D231F849FEA
:100A5000600D211D822F762F6A2F11249F57504041
:100A60009AF0F1F088234AF0EE0FFF1FBB1F661FBC
:100A7000771F881F91505040A9F79E3F510580F085
:100A80000C9499040C94E4045F3FE4F3983ED4F38F
:100A9000869577956795B795F795E7959F5FC1F729
:100AA000FE2B880F911D9695879597F90895BB2782
:100AB0004A3031F4992322F4BDE2909581959F4FFD
:100AC0000C946305BB27FB015527AA27880F991FA4
:100AD000AA1FA41710F0A41B83955051B9F7A05D6D
:100AE000AA3308F0A95DA193009779F7B111B193EA
:100AF0001192CB010C947C05DC01FC01672F7191F4
:100B00007723E1F7329704C07C916D9370836291F3
:0C0B1000AE17BF07C8F30895F894FFCF9C
:100B1C0041783D00202041793D00417A3D004778E5
:100B2C003D00202047793D00477A3D002020546548
:100B3C006D703D005570646174696E67202E2E00D7
:00000001FF
